{
  "contractName": "CoveyLedger",
  "abi": [
    {
      "anonymous": false,
      "inputs": [
        {
          "indexed": true,
          "internalType": "address",
          "name": "oldAddress",
          "type": "address"
        },
        {
          "indexed": true,
          "internalType": "address",
          "name": "newAddress",
          "type": "address"
        }
      ],
      "name": "AddressSwapped",
      "type": "event"
    },
    {
      "anonymous": false,
      "inputs": [
        {
          "indexed": true,
          "internalType": "address",
          "name": "analyst",
          "type": "address"
        },
        {
          "indexed": false,
          "internalType": "string",
          "name": "content",
          "type": "string"
        },
        {
          "indexed": true,
          "internalType": "uint256",
          "name": "created_at",
          "type": "uint256"
        }
      ],
      "name": "ContentCreated",
      "type": "event"
    },
    {
      "inputs": [],
      "name": "initialize",
      "outputs": [],
      "stateMutability": "nonpayable",
      "type": "function"
    },
    {
      "inputs": [
        {
          "internalType": "string",
          "name": "content",
          "type": "string"
        }
      ],
      "name": "createContent",
      "outputs": [],
      "stateMutability": "nonpayable",
      "type": "function"
    },
    {
      "inputs": [
        {
          "internalType": "address",
          "name": "_adr",
          "type": "address"
        }
      ],
      "name": "getAnalystContent",
      "outputs": [
        {
          "components": [
            {
              "internalType": "address",
              "name": "analyst",
              "type": "address"
            },
            {
              "internalType": "string",
              "name": "content",
              "type": "string"
            },
            {
              "internalType": "uint256",
              "name": "created_at",
              "type": "uint256"
            }
          ],
          "internalType": "struct CoveyLedger.CoveyContent[]",
          "name": "",
          "type": "tuple[]"
        }
      ],
      "stateMutability": "view",
      "type": "function",
      "constant": true
    },
    {
      "inputs": [],
      "name": "getAllContent",
      "outputs": [
        {
          "components": [
            {
              "internalType": "address",
              "name": "analyst",
              "type": "address"
            },
            {
              "internalType": "string",
              "name": "content",
              "type": "string"
            },
            {
              "internalType": "uint256",
              "name": "created_at",
              "type": "uint256"
            }
          ],
          "internalType": "struct CoveyLedger.CoveyContent[]",
          "name": "",
          "type": "tuple[]"
        }
      ],
      "stateMutability": "view",
      "type": "function",
      "constant": true
    },
    {
      "inputs": [
        {
          "internalType": "address",
          "name": "oldAddress",
          "type": "address"
        },
        {
          "internalType": "address",
          "name": "newAddress",
          "type": "address"
        }
      ],
      "name": "AddressSwitch",
      "outputs": [],
      "stateMutability": "nonpayable",
      "type": "function"
    }
  ],
  "bytecode": "0x608060405234801561001057600080fd5b50611634806100206000396000f3fe608060405234801561001057600080fd5b50600436106100575760003560e01c8063497cc8411461005c57806349c675031461007857806354315084146100a857806380da6cb3146100c65780638129fc1c146100e2575b600080fd5b61007660048036038101906100719190611100565b6100ec565b005b610092600480360381019061008d91906111a7565b6102e9565b60405161009f9190611396565b60405180910390f35b6100b0610479565b6040516100bd9190611396565b60405180910390f35b6100e060048036038101906100db91906113b8565b6105ca565b005b6100ea610bb9565b005b600060405180606001604052803373ffffffffffffffffffffffffffffffffffffffff168152602001838152602001428152509050600160003373ffffffffffffffffffffffffffffffffffffffff1673ffffffffffffffffffffffffffffffffffffffff16815260200190815260200160002081908060018154018082558091505060019003906000526020600020906003020160009091909190915060008201518160000160006101000a81548173ffffffffffffffffffffffffffffffffffffffff021916908373ffffffffffffffffffffffffffffffffffffffff16021790555060208201518160010190805190602001906101ed929190610cd3565b50604082015181600201555050600281908060018154018082558091505060019003906000526020600020906003020160009091909190915060008201518160000160006101000a81548173ffffffffffffffffffffffffffffffffffffffff021916908373ffffffffffffffffffffffffffffffffffffffff1602179055506020820151816001019080519060200190610289929190610cd3565b50604082015181600201555050423373ffffffffffffffffffffffffffffffffffffffff167fc1ee072f438c5824e2a943285a6d24e3375d58914c2b632a57dfa061efce0364846040516102dd9190611442565b60405180910390a35050565b6060600160008373ffffffffffffffffffffffffffffffffffffffff1673ffffffffffffffffffffffffffffffffffffffff168152602001908152602001600020805480602002602001604051908101604052809291908181526020016000905b8282101561046e57838290600052602060002090600302016040518060600160405290816000820160009054906101000a900473ffffffffffffffffffffffffffffffffffffffff1673ffffffffffffffffffffffffffffffffffffffff1673ffffffffffffffffffffffffffffffffffffffff1681526020016001820180546103d390611493565b80601f01602080910402602001604051908101604052809291908181526020018280546103ff90611493565b801561044c5780601f106104215761010080835404028352916020019161044c565b820191906000526020600020905b81548152906001019060200180831161042f57829003601f168201915b505050505081526020016002820154815250508152602001906001019061034a565b505050509050919050565b60606002805480602002602001604051908101604052809291908181526020016000905b828210156105c157838290600052602060002090600302016040518060600160405290816000820160009054906101000a900473ffffffffffffffffffffffffffffffffffffffff1673ffffffffffffffffffffffffffffffffffffffff1673ffffffffffffffffffffffffffffffffffffffff16815260200160018201805461052690611493565b80601f016020809104026020016040519081016040528092919081815260200182805461055290611493565b801561059f5780601f106105745761010080835404028352916020019161059f565b820191906000526020600020905b81548152906001019060200180831161058257829003601f168201915b505050505081526020016002820154815250508152602001906001019061049d565b50505050905090565b8173ffffffffffffffffffffffffffffffffffffffff163373ffffffffffffffffffffffffffffffffffffffff161461060257600080fd5b6000600160003373ffffffffffffffffffffffffffffffffffffffff1673ffffffffffffffffffffffffffffffffffffffff16815260200190815260200160002090506000600160008473ffffffffffffffffffffffffffffffffffffffff1673ffffffffffffffffffffffffffffffffffffffff168152602001908152602001600020805490501115610b0a576000600160008473ffffffffffffffffffffffffffffffffffffffff1673ffffffffffffffffffffffffffffffffffffffff168152602001908152602001600020805480602002602001604051908101604052809291908181526020016000905b8282101561081557838290600052602060002090600302016040518060600160405290816000820160009054906101000a900473ffffffffffffffffffffffffffffffffffffffff1673ffffffffffffffffffffffffffffffffffffffff1673ffffffffffffffffffffffffffffffffffffffff16815260200160018201805461077a90611493565b80601f01602080910402602001604051908101604052809291908181526020018280546107a690611493565b80156107f35780601f106107c8576101008083540402835291602001916107f3565b820191906000526020600020905b8154815290600101906020018083116107d657829003601f168201915b50505050508152602001600282015481525050815260200190600101906106f1565b505050509050600160008473ffffffffffffffffffffffffffffffffffffffff1673ffffffffffffffffffffffffffffffffffffffff16815260200190815260200160002060006108669190610d59565b60005b82805490508110156109f05781600081518110610889576108886114c5565b5b6020026020010151604001518382815481106108a8576108a76114c5565b5b90600052602060002090600302016002015410156109dd57600160008573ffffffffffffffffffffffffffffffffffffffff1673ffffffffffffffffffffffffffffffffffffffff168152602001908152602001600020838281548110610912576109116114c5565b5b906000526020600020906003020190806001815401808255809150506001900390600052602060002090600302016000909190919091506000820160009054906101000a900473ffffffffffffffffffffffffffffffffffffffff168160000160006101000a81548173ffffffffffffffffffffffffffffffffffffffff021916908373ffffffffffffffffffffffffffffffffffffffff16021790555060018201816001019080546109c490611493565b6109cf929190610d7d565b506002820154816002015550505b80806109e890611523565b915050610869565b5060005b8151811015610b0357600160008573ffffffffffffffffffffffffffffffffffffffff1673ffffffffffffffffffffffffffffffffffffffff168152602001908152602001600020828281518110610a4f57610a4e6114c5565b5b6020026020010151908060018154018082558091505060019003906000526020600020906003020160009091909190915060008201518160000160006101000a81548173ffffffffffffffffffffffffffffffffffffffff021916908373ffffffffffffffffffffffffffffffffffffffff1602179055506020820151816001019080519060200190610ae3929190610cd3565b506040820151816002015550508080610afb90611523565b9150506109f4565b5050610b5a565b80600160008473ffffffffffffffffffffffffffffffffffffffff1673ffffffffffffffffffffffffffffffffffffffff168152602001908152602001600020908054610b58929190610e0a565b505b8173ffffffffffffffffffffffffffffffffffffffff168373ffffffffffffffffffffffffffffffffffffffff167fd8664d946c6c91d61ec58f6ab38e3c3ba8201c40c329115f516085f2211dcded60405160405180910390a3505050565b600060019054906101000a900460ff1680610bdf575060008054906101000a900460ff16155b610c1e576040517f08c379a0000000000000000000000000000000000000000000000000000000008152600401610c15906115de565b60405180910390fd5b60008060019054906101000a900460ff161590508015610c6e576001600060016101000a81548160ff02191690831515021790555060016000806101000a81548160ff0219169083151502179055505b33600360006101000a81548173ffffffffffffffffffffffffffffffffffffffff021916908373ffffffffffffffffffffffffffffffffffffffff1602179055508015610cd05760008060016101000a81548160ff0219169083151502179055505b50565b828054610cdf90611493565b90600052602060002090601f016020900481019282610d015760008555610d48565b82601f10610d1a57805160ff1916838001178555610d48565b82800160010185558215610d48579182015b82811115610d47578251825591602001919060010190610d2c565b5b509050610d559190610ef3565b5090565b5080546000825560030290600052602060002090810190610d7a9190610f10565b50565b828054610d8990611493565b90600052602060002090601f016020900481019282610dab5760008555610df9565b82601f10610dbc5780548555610df9565b82800160010185558215610df957600052602060002091601f016020900482015b82811115610df8578254825591600101919060010190610ddd565b5b509050610e069190610ef3565b5090565b828054828255906000526020600020906003028101928215610ee25760005260206000209160030282015b82811115610ee15782826000820160009054906101000a900473ffffffffffffffffffffffffffffffffffffffff168160000160006101000a81548173ffffffffffffffffffffffffffffffffffffffff021916908373ffffffffffffffffffffffffffffffffffffffff1602179055506001820181600101908054610eba90611493565b610ec5929190610d7d565b5060028201548160020155505091600301919060030190610e35565b5b509050610eef9190610f10565b5090565b5b80821115610f0c576000816000905550600101610ef4565b5090565b5b80821115610f6257600080820160006101000a81549073ffffffffffffffffffffffffffffffffffffffff0219169055600182016000610f519190610f66565b600282016000905550600301610f11565b5090565b508054610f7290611493565b6000825580601f10610f845750610fa3565b601f016020900490600052602060002090810190610fa29190610ef3565b5b50565b6000604051905090565b600080fd5b600080fd5b600080fd5b600080fd5b6000601f19601f8301169050919050565b7f4e487b7100000000000000000000000000000000000000000000000000000000600052604160045260246000fd5b61100d82610fc4565b810181811067ffffffffffffffff8211171561102c5761102b610fd5565b5b80604052505050565b600061103f610fa6565b905061104b8282611004565b919050565b600067ffffffffffffffff82111561106b5761106a610fd5565b5b61107482610fc4565b9050602081019050919050565b82818337600083830152505050565b60006110a361109e84611050565b611035565b9050828152602081018484840111156110bf576110be610fbf565b5b6110ca848285611081565b509392505050565b600082601f8301126110e7576110e6610fba565b5b81356110f7848260208601611090565b91505092915050565b60006020828403121561111657611115610fb0565b5b600082013567ffffffffffffffff81111561113457611133610fb5565b5b611140848285016110d2565b91505092915050565b600073ffffffffffffffffffffffffffffffffffffffff82169050919050565b600061117482611149565b9050919050565b61118481611169565b811461118f57600080fd5b50565b6000813590506111a18161117b565b92915050565b6000602082840312156111bd576111bc610fb0565b5b60006111cb84828501611192565b91505092915050565b600081519050919050565b600082825260208201905092915050565b6000819050602082019050919050565b61120981611169565b82525050565b600081519050919050565b600082825260208201905092915050565b60005b8381101561124957808201518184015260208101905061122e565b83811115611258576000848401525b50505050565b60006112698261120f565b611273818561121a565b935061128381856020860161122b565b61128c81610fc4565b840191505092915050565b6000819050919050565b6112aa81611297565b82525050565b60006060830160008301516112c86000860182611200565b50602083015184820360208601526112e0828261125e565b91505060408301516112f560408601826112a1565b508091505092915050565b600061130c83836112b0565b905092915050565b6000602082019050919050565b600061132c826111d4565b61133681856111df565b935083602082028501611348856111f0565b8060005b8581101561138457848403895281516113658582611300565b945061137083611314565b925060208a0199505060018101905061134c565b50829750879550505050505092915050565b600060208201905081810360008301526113b08184611321565b905092915050565b600080604083850312156113cf576113ce610fb0565b5b60006113dd85828601611192565b92505060206113ee85828601611192565b9150509250929050565b600082825260208201905092915050565b60006114148261120f565b61141e81856113f8565b935061142e81856020860161122b565b61143781610fc4565b840191505092915050565b6000602082019050818103600083015261145c8184611409565b905092915050565b7f4e487b7100000000000000000000000000000000000000000000000000000000600052602260045260246000fd5b600060028204905060018216806114ab57607f821691505b602082108114156114bf576114be611464565b5b50919050565b7f4e487b7100000000000000000000000000000000000000000000000000000000600052603260045260246000fd5b7f4e487b7100000000000000000000000000000000000000000000000000000000600052601160045260246000fd5b600061152e82611297565b91507fffffffffffffffffffffffffffffffffffffffffffffffffffffffffffffffff821415611561576115606114f4565b5b600182019050919050565b7f496e697469616c697a61626c653a20636f6e747261637420697320616c72656160008201527f647920696e697469616c697a6564000000000000000000000000000000000000602082015250565b60006115c8602e836113f8565b91506115d38261156c565b604082019050919050565b600060208201905081810360008301526115f7816115bb565b905091905056fea2646970667358221220f7decd9ef79202d60ccef2e2ffbb8ec15d3d57be563a5e36a181b589c7accd7e64736f6c634300080a0033",
  "immutableReferences": {},
  "source": "// SPDX-License-Identifier: MIT\r\npragma solidity >=0.4.22 <0.9.0;\r\n\r\nimport '@openzeppelin/contracts-upgradeable/proxy/utils/Initializable.sol';\r\n\r\ncontract CoveyLedger is Initializable {\r\n    struct CoveyContent {\r\n        address analyst;\r\n        string content;\r\n        uint256 created_at;\r\n    }\r\n\r\n    mapping(address => CoveyContent[]) analystContent;\r\n    CoveyContent[] allContent;\r\n    address owner;\r\n\r\n    function initialize() public initializer {\r\n        owner = msg.sender;\r\n    }\r\n\r\n    event ContentCreated(\r\n        address indexed analyst,\r\n        string content,\r\n        uint256 indexed created_at\r\n    );\r\n\r\n    event AddressSwapped(\r\n        address indexed oldAddress,\r\n        address indexed newAddress\r\n    );\r\n\r\n    modifier onlyOwner {\r\n        require(msg.sender == owner);\r\n        _;\r\n    }\r\n\r\n    function createContent(string memory content) public {\r\n        CoveyContent memory c = CoveyContent({\r\n            analyst: msg.sender,\r\n            content: content,\r\n            created_at: block.timestamp\r\n        });\r\n        analystContent[msg.sender].push(c);\r\n        allContent.push(c);\r\n\r\n        emit ContentCreated(msg.sender, content, block.timestamp);\r\n    }\r\n\r\n    function getAnalystContent(address _adr)\r\n        public\r\n        view\r\n        returns (CoveyContent[] memory)\r\n    {\r\n        return analystContent[_adr];\r\n    }\r\n\r\n    function getAllContent() public view returns (CoveyContent[] memory) {\r\n        return allContent;\r\n    }\r\n\r\n    function AddressSwitch(address oldAddress, address newAddress) public {\r\n        require(msg.sender == oldAddress);\r\n        CoveyContent[] storage copyContent = analystContent[msg.sender];\r\n\r\n        if (analystContent[newAddress].length > 0) {\r\n            CoveyContent[] memory existingLedger = analystContent[newAddress];\r\n            delete analystContent[newAddress];\r\n            for (uint256 i = 0; i < copyContent.length; i++) {\r\n                if (copyContent[i].created_at < existingLedger[0].created_at) {\r\n                    analystContent[newAddress].push(copyContent[i]);\r\n                }\r\n            }\r\n\r\n            for (uint256 j = 0; j < existingLedger.length; j++) {\r\n                analystContent[newAddress].push(existingLedger[j]);\r\n            }\r\n        } else {\r\n            analystContent[newAddress] = copyContent;\r\n        }\r\n\r\n        emit AddressSwapped(oldAddress, newAddress);\r\n    }\r\n}\r\n",
  "sourcePath": "C:\\Users\\jcara\\Documents\\repos\\covey-ledger\\contracts\\CoveyLedger.sol",
  "compiler": {
    "name": "solc",
    "version": "0.8.10+commit.fc410830.Emscripten.clang"
  },
  "schemaVersion": "3.4.4",
  "updatedAt": "2022-04-28T18:57:46.408Z",
  "networkType": "ethereum",
  "devdoc": {
    "kind": "dev",
    "methods": {},
    "version": 1
  },
  "userdoc": {
    "kind": "user",
    "methods": {},
    "version": 1
  }
}