{
  "contractName": "CoveyLedger",
  "abi": [
    {
      "anonymous": false,
      "inputs": [
        {
          "indexed": true,
          "internalType": "address",
          "name": "oldAddress",
          "type": "address"
        },
        {
          "indexed": true,
          "internalType": "address",
          "name": "newAddress",
          "type": "address"
        }
      ],
      "name": "AddressSwapped",
      "type": "event"
    },
    {
      "anonymous": false,
      "inputs": [
        {
          "indexed": true,
          "internalType": "address",
          "name": "analyst",
          "type": "address"
        },
        {
          "indexed": false,
          "internalType": "string",
          "name": "content",
          "type": "string"
        },
        {
          "indexed": true,
          "internalType": "uint256",
          "name": "created_at",
          "type": "uint256"
        }
      ],
      "name": "ContentCreated",
      "type": "event"
    },
    {
      "inputs": [],
      "name": "initialize",
      "outputs": [],
      "stateMutability": "nonpayable",
      "type": "function"
    },
    {
      "inputs": [
        {
          "internalType": "string",
          "name": "content",
          "type": "string"
        }
      ],
      "name": "createContent",
      "outputs": [],
      "stateMutability": "nonpayable",
      "type": "function"
    },
    {
      "inputs": [
        {
          "internalType": "address",
          "name": "_adr",
          "type": "address"
        }
      ],
      "name": "getAnalystContent",
      "outputs": [
        {
          "components": [
            {
              "internalType": "address",
              "name": "analyst",
              "type": "address"
            },
            {
              "internalType": "string",
              "name": "content",
              "type": "string"
            },
            {
              "internalType": "uint256",
              "name": "created_at",
              "type": "uint256"
            }
          ],
          "internalType": "struct CoveyLedger.CoveyContent[]",
          "name": "",
          "type": "tuple[]"
        }
      ],
      "stateMutability": "view",
      "type": "function",
      "constant": true
    },
    {
      "inputs": [],
      "name": "getAllContent",
      "outputs": [
        {
          "components": [
            {
              "internalType": "address",
              "name": "analyst",
              "type": "address"
            },
            {
              "internalType": "string",
              "name": "content",
              "type": "string"
            },
            {
              "internalType": "uint256",
              "name": "created_at",
              "type": "uint256"
            }
          ],
          "internalType": "struct CoveyLedger.CoveyContent[]",
          "name": "",
          "type": "tuple[]"
        }
      ],
      "stateMutability": "view",
      "type": "function",
      "constant": true
    },
    {
      "inputs": [
        {
          "internalType": "address",
          "name": "oldAddress",
          "type": "address"
        },
        {
          "internalType": "address",
          "name": "newAddress",
          "type": "address"
        }
      ],
      "name": "AddressSwitch",
      "outputs": [],
      "stateMutability": "nonpayable",
      "type": "function"
    },
    {
      "inputs": [
        {
          "internalType": "address",
          "name": "oldAddress",
          "type": "address"
        },
        {
          "internalType": "address",
          "name": "newAddress",
          "type": "address"
        },
        {
          "internalType": "uint256[]",
          "name": "indexes",
          "type": "uint256[]"
        }
      ],
      "name": "AddressCopy",
      "outputs": [],
      "stateMutability": "nonpayable",
      "type": "function"
    }
  ],
  "bytecode": "0x608060405234801561001057600080fd5b5061167e806100206000396000f3fe608060405234801561001057600080fd5b50600436106100625760003560e01c8063497cc8411461006757806349c675031461008357806354315084146100b357806380da6cb3146100d15780638129fc1c146100ed578063f70fcd6a146100f7575b600080fd5b610081600480360381019061007c9190610f2f565b610113565b005b61009d60048036038101906100989190610fd6565b610310565b6040516100aa91906111c5565b60405180910390f35b6100bb6104a0565b6040516100c891906111c5565b60405180910390f35b6100eb60048036038101906100e691906111e7565b6105f1565b005b6100f561071a565b005b610111600480360381019061010c919061131b565b610834565b005b600060405180606001604052803373ffffffffffffffffffffffffffffffffffffffff168152602001838152602001428152509050600160003373ffffffffffffffffffffffffffffffffffffffff1673ffffffffffffffffffffffffffffffffffffffff16815260200190815260200160002081908060018154018082558091505060019003906000526020600020906003020160009091909190915060008201518160000160006101000a81548173ffffffffffffffffffffffffffffffffffffffff021916908373ffffffffffffffffffffffffffffffffffffffff1602179055506020820151816001019080519060200190610214929190610b26565b50604082015181600201555050600281908060018154018082558091505060019003906000526020600020906003020160009091909190915060008201518160000160006101000a81548173ffffffffffffffffffffffffffffffffffffffff021916908373ffffffffffffffffffffffffffffffffffffffff16021790555060208201518160010190805190602001906102b0929190610b26565b50604082015181600201555050423373ffffffffffffffffffffffffffffffffffffffff167fc1ee072f438c5824e2a943285a6d24e3375d58914c2b632a57dfa061efce03648460405161030491906113d4565b60405180910390a35050565b6060600160008373ffffffffffffffffffffffffffffffffffffffff1673ffffffffffffffffffffffffffffffffffffffff168152602001908152602001600020805480602002602001604051908101604052809291908181526020016000905b8282101561049557838290600052602060002090600302016040518060600160405290816000820160009054906101000a900473ffffffffffffffffffffffffffffffffffffffff1673ffffffffffffffffffffffffffffffffffffffff1673ffffffffffffffffffffffffffffffffffffffff1681526020016001820180546103fa90611425565b80601f016020809104026020016040519081016040528092919081815260200182805461042690611425565b80156104735780601f1061044857610100808354040283529160200191610473565b820191906000526020600020905b81548152906001019060200180831161045657829003601f168201915b5050505050815260200160028201548152505081526020019060010190610371565b505050509050919050565b60606002805480602002602001604051908101604052809291908181526020016000905b828210156105e857838290600052602060002090600302016040518060600160405290816000820160009054906101000a900473ffffffffffffffffffffffffffffffffffffffff1673ffffffffffffffffffffffffffffffffffffffff1673ffffffffffffffffffffffffffffffffffffffff16815260200160018201805461054d90611425565b80601f016020809104026020016040519081016040528092919081815260200182805461057990611425565b80156105c65780601f1061059b576101008083540402835291602001916105c6565b820191906000526020600020905b8154815290600101906020018083116105a957829003601f168201915b50505050508152602001600282015481525050815260200190600101906104c4565b50505050905090565b8173ffffffffffffffffffffffffffffffffffffffff163373ffffffffffffffffffffffffffffffffffffffff161461062957600080fd5b6000600160003373ffffffffffffffffffffffffffffffffffffffff1673ffffffffffffffffffffffffffffffffffffffff168152602001908152602001600020905080600160008473ffffffffffffffffffffffffffffffffffffffff1673ffffffffffffffffffffffffffffffffffffffff1681526020019081526020016000209080546106ba929190610bac565b508173ffffffffffffffffffffffffffffffffffffffff168373ffffffffffffffffffffffffffffffffffffffff167fd8664d946c6c91d61ec58f6ab38e3c3ba8201c40c329115f516085f2211dcded60405160405180910390a3505050565b600060019054906101000a900460ff1680610740575060008054906101000a900460ff16155b61077f576040517f08c379a0000000000000000000000000000000000000000000000000000000008152600401610776906114c9565b60405180910390fd5b60008060019054906101000a900460ff1615905080156107cf576001600060016101000a81548160ff02191690831515021790555060016000806101000a81548160ff0219169083151502179055505b33600360006101000a81548173ffffffffffffffffffffffffffffffffffffffff021916908373ffffffffffffffffffffffffffffffffffffffff16021790555080156108315760008060016101000a81548160ff0219169083151502179055505b50565b8273ffffffffffffffffffffffffffffffffffffffff163373ffffffffffffffffffffffffffffffffffffffff161461086c57600080fd5b60005b8151811015610b2057600160008473ffffffffffffffffffffffffffffffffffffffff1673ffffffffffffffffffffffffffffffffffffffff1681526020019081526020016000206000815481106108ca576108c96114e9565b5b906000526020600020906003020160020154600160008673ffffffffffffffffffffffffffffffffffffffff1673ffffffffffffffffffffffffffffffffffffffff16815260200190815260200160002083838151811061092e5761092d6114e9565b5b602002602001015181548110610947576109466114e9565b5b90600052602060002090600302016002015410610999576040517f08c379a0000000000000000000000000000000000000000000000000000000008152600401610990906115b0565b60405180910390fd5b600160008473ffffffffffffffffffffffffffffffffffffffff1673ffffffffffffffffffffffffffffffffffffffff168152602001908152602001600020600160008673ffffffffffffffffffffffffffffffffffffffff1673ffffffffffffffffffffffffffffffffffffffff168152602001908152602001600020838381518110610a2a57610a296114e9565b5b602002602001015181548110610a4357610a426114e9565b5b906000526020600020906003020190806001815401808255809150506001900390600052602060002090600302016000909190919091506000820160009054906101000a900473ffffffffffffffffffffffffffffffffffffffff168160000160006101000a81548173ffffffffffffffffffffffffffffffffffffffff021916908373ffffffffffffffffffffffffffffffffffffffff1602179055506001820181600101908054610af590611425565b610b00929190610c95565b506002820154816002015550508080610b18906115ff565b91505061086f565b50505050565b828054610b3290611425565b90600052602060002090601f016020900481019282610b545760008555610b9b565b82601f10610b6d57805160ff1916838001178555610b9b565b82800160010185558215610b9b579182015b82811115610b9a578251825591602001919060010190610b7f565b5b509050610ba89190610d22565b5090565b828054828255906000526020600020906003028101928215610c845760005260206000209160030282015b82811115610c835782826000820160009054906101000a900473ffffffffffffffffffffffffffffffffffffffff168160000160006101000a81548173ffffffffffffffffffffffffffffffffffffffff021916908373ffffffffffffffffffffffffffffffffffffffff1602179055506001820181600101908054610c5c90611425565b610c67929190610c95565b5060028201548160020155505091600301919060030190610bd7565b5b509050610c919190610d3f565b5090565b828054610ca190611425565b90600052602060002090601f016020900481019282610cc35760008555610d11565b82601f10610cd45780548555610d11565b82800160010185558215610d1157600052602060002091601f016020900482015b82811115610d10578254825591600101919060010190610cf5565b5b509050610d1e9190610d22565b5090565b5b80821115610d3b576000816000905550600101610d23565b5090565b5b80821115610d9157600080820160006101000a81549073ffffffffffffffffffffffffffffffffffffffff0219169055600182016000610d809190610d95565b600282016000905550600301610d40565b5090565b508054610da190611425565b6000825580601f10610db35750610dd2565b601f016020900490600052602060002090810190610dd19190610d22565b5b50565b6000604051905090565b600080fd5b600080fd5b600080fd5b600080fd5b6000601f19601f8301169050919050565b7f4e487b7100000000000000000000000000000000000000000000000000000000600052604160045260246000fd5b610e3c82610df3565b810181811067ffffffffffffffff82111715610e5b57610e5a610e04565b5b80604052505050565b6000610e6e610dd5565b9050610e7a8282610e33565b919050565b600067ffffffffffffffff821115610e9a57610e99610e04565b5b610ea382610df3565b9050602081019050919050565b82818337600083830152505050565b6000610ed2610ecd84610e7f565b610e64565b905082815260208101848484011115610eee57610eed610dee565b5b610ef9848285610eb0565b509392505050565b600082601f830112610f1657610f15610de9565b5b8135610f26848260208601610ebf565b91505092915050565b600060208284031215610f4557610f44610ddf565b5b600082013567ffffffffffffffff811115610f6357610f62610de4565b5b610f6f84828501610f01565b91505092915050565b600073ffffffffffffffffffffffffffffffffffffffff82169050919050565b6000610fa382610f78565b9050919050565b610fb381610f98565b8114610fbe57600080fd5b50565b600081359050610fd081610faa565b92915050565b600060208284031215610fec57610feb610ddf565b5b6000610ffa84828501610fc1565b91505092915050565b600081519050919050565b600082825260208201905092915050565b6000819050602082019050919050565b61103881610f98565b82525050565b600081519050919050565b600082825260208201905092915050565b60005b8381101561107857808201518184015260208101905061105d565b83811115611087576000848401525b50505050565b60006110988261103e565b6110a28185611049565b93506110b281856020860161105a565b6110bb81610df3565b840191505092915050565b6000819050919050565b6110d9816110c6565b82525050565b60006060830160008301516110f7600086018261102f565b506020830151848203602086015261110f828261108d565b915050604083015161112460408601826110d0565b508091505092915050565b600061113b83836110df565b905092915050565b6000602082019050919050565b600061115b82611003565b611165818561100e565b9350836020820285016111778561101f565b8060005b858110156111b35784840389528151611194858261112f565b945061119f83611143565b925060208a0199505060018101905061117b565b50829750879550505050505092915050565b600060208201905081810360008301526111df8184611150565b905092915050565b600080604083850312156111fe576111fd610ddf565b5b600061120c85828601610fc1565b925050602061121d85828601610fc1565b9150509250929050565b600067ffffffffffffffff82111561124257611241610e04565b5b602082029050602081019050919050565b600080fd5b611261816110c6565b811461126c57600080fd5b50565b60008135905061127e81611258565b92915050565b600061129761129284611227565b610e64565b905080838252602082019050602084028301858111156112ba576112b9611253565b5b835b818110156112e357806112cf888261126f565b8452602084019350506020810190506112bc565b5050509392505050565b600082601f83011261130257611301610de9565b5b8135611312848260208601611284565b91505092915050565b60008060006060848603121561133457611333610ddf565b5b600061134286828701610fc1565b935050602061135386828701610fc1565b925050604084013567ffffffffffffffff81111561137457611373610de4565b5b611380868287016112ed565b9150509250925092565b600082825260208201905092915050565b60006113a68261103e565b6113b0818561138a565b93506113c081856020860161105a565b6113c981610df3565b840191505092915050565b600060208201905081810360008301526113ee818461139b565b905092915050565b7f4e487b7100000000000000000000000000000000000000000000000000000000600052602260045260246000fd5b6000600282049050600182168061143d57607f821691505b60208210811415611451576114506113f6565b5b50919050565b7f496e697469616c697a61626c653a20636f6e747261637420697320616c72656160008201527f647920696e697469616c697a6564000000000000000000000000000000000000602082015250565b60006114b3602e8361138a565b91506114be82611457565b604082019050919050565b600060208201905081810360008301526114e2816114a6565b9050919050565b7f4e487b7100000000000000000000000000000000000000000000000000000000600052603260045260246000fd5b7f436f7069656420636f6e74656e742063616e6e6f74206265206166746572207960008201527f6f7572206669727374207472616465206f6e20796f7572206e6577206c65646760208201527f6572000000000000000000000000000000000000000000000000000000000000604082015250565b600061159a60428361138a565b91506115a582611518565b606082019050919050565b600060208201905081810360008301526115c98161158d565b9050919050565b7f4e487b7100000000000000000000000000000000000000000000000000000000600052601160045260246000fd5b600061160a826110c6565b91507fffffffffffffffffffffffffffffffffffffffffffffffffffffffffffffffff82141561163d5761163c6115d0565b5b60018201905091905056fea26469706673582212209242c0911c9c0b5ded38b4f40b7bcafa4fd207389f9513270537fb24ab684bb864736f6c634300080a0033",
  "immutableReferences": {},
  "source": "// SPDX-License-Identifier: MIT\r\npragma solidity >=0.4.22 <0.9.0;\r\n\r\nimport '@openzeppelin/contracts-upgradeable/proxy/utils/Initializable.sol';\r\n\r\ncontract CoveyLedger is Initializable {\r\n    struct CoveyContent {\r\n        address analyst;\r\n        string content;\r\n        uint256 created_at;\r\n    }\r\n\r\n    mapping(address => CoveyContent[]) analystContent;\r\n    CoveyContent[] allContent;\r\n    address owner;\r\n\r\n    function initialize() public initializer {\r\n        owner = msg.sender;\r\n    }\r\n\r\n    event ContentCreated(\r\n        address indexed analyst,\r\n        string content,\r\n        uint256 indexed created_at\r\n    );\r\n\r\n    event AddressSwapped(\r\n        address indexed oldAddress,\r\n        address indexed newAddress\r\n    );\r\n\r\n    modifier onlyOwner {\r\n        require(msg.sender == owner);\r\n        _;\r\n    }\r\n\r\n    function createContent(string memory content) public {\r\n        CoveyContent memory c = CoveyContent({\r\n            analyst: msg.sender,\r\n            content: content,\r\n            created_at: block.timestamp\r\n        });\r\n        analystContent[msg.sender].push(c);\r\n        allContent.push(c);\r\n\r\n        emit ContentCreated(msg.sender, content, block.timestamp);\r\n    }\r\n\r\n    function getAnalystContent(address _adr)\r\n        public\r\n        view\r\n        returns (CoveyContent[] memory)\r\n    {\r\n        return analystContent[_adr];\r\n    }\r\n\r\n    function getAllContent() public view returns (CoveyContent[] memory) {\r\n        return allContent;\r\n    }\r\n\r\n    function AddressSwitch(address oldAddress, address newAddress) public {\r\n        require(msg.sender == oldAddress);\r\n        CoveyContent[] storage copyContent = analystContent[msg.sender];\r\n        analystContent[newAddress] = copyContent;\r\n\r\n        emit AddressSwapped(oldAddress, newAddress);\r\n    }\r\n\r\n    function AddressCopy(\r\n        address oldAddress,\r\n        address newAddress,\r\n        uint256[] memory indexes\r\n    ) public {\r\n        require(msg.sender == oldAddress);\r\n\r\n        for (uint256 i = 0; i < indexes.length; i++) {\r\n            require(\r\n                analystContent[oldAddress][indexes[i]].created_at <\r\n                    analystContent[newAddress][0].created_at,\r\n                'Copied content cannot be after your first trade on your new ledger'\r\n            );\r\n            analystContent[newAddress].push(\r\n                analystContent[oldAddress][indexes[i]]\r\n            );\r\n        }\r\n    }\r\n}\r\n",
  "sourcePath": "C:\\Users\\jcara\\Documents\\repos\\covey-ledger\\contracts\\CoveyLedger.sol",
  "compiler": {
    "name": "solc",
    "version": "0.8.10+commit.fc410830.Emscripten.clang"
  },
  "schemaVersion": "3.4.4",
  "updatedAt": "2022-04-27T19:14:56.387Z",
  "networkType": "ethereum",
  "devdoc": {
    "kind": "dev",
    "methods": {},
    "version": 1
  },
  "userdoc": {
    "kind": "user",
    "methods": {},
    "version": 1
  }
}