{
  "contractName": "CoveyLedger",
  "abi": [
    {
      "anonymous": false,
      "inputs": [
        {
          "indexed": true,
          "internalType": "address",
          "name": "oldAddress",
          "type": "address"
        },
        {
          "indexed": true,
          "internalType": "address",
          "name": "newAddress",
          "type": "address"
        }
      ],
      "name": "AddressSwapped",
      "type": "event"
    },
    {
      "anonymous": false,
      "inputs": [
        {
          "indexed": true,
          "internalType": "address",
          "name": "analyst",
          "type": "address"
        },
        {
          "indexed": false,
          "internalType": "string",
          "name": "content",
          "type": "string"
        },
        {
          "indexed": true,
          "internalType": "uint256",
          "name": "created_at",
          "type": "uint256"
        }
      ],
      "name": "ContentCreated",
      "type": "event"
    },
    {
      "anonymous": false,
      "inputs": [
        {
          "indexed": true,
          "internalType": "address",
          "name": "analystAddress",
          "type": "address"
        }
      ],
      "name": "LedgerBackup",
      "type": "event"
    },
    {
      "anonymous": false,
      "inputs": [
        {
          "indexed": true,
          "internalType": "address",
          "name": "analystAddress",
          "type": "address"
        }
      ],
      "name": "LedgerRestored",
      "type": "event"
    },
    {
      "inputs": [],
      "name": "initialize",
      "outputs": [],
      "stateMutability": "nonpayable",
      "type": "function"
    },
    {
      "inputs": [
        {
          "internalType": "string",
          "name": "content",
          "type": "string"
        }
      ],
      "name": "createContent",
      "outputs": [],
      "stateMutability": "nonpayable",
      "type": "function"
    },
    {
      "inputs": [
        {
          "internalType": "address",
          "name": "_adr",
          "type": "address"
        }
      ],
      "name": "getAnalystContent",
      "outputs": [
        {
          "components": [
            {
              "internalType": "address",
              "name": "analyst",
              "type": "address"
            },
            {
              "internalType": "string",
              "name": "content",
              "type": "string"
            },
            {
              "internalType": "uint256",
              "name": "created_at",
              "type": "uint256"
            }
          ],
          "internalType": "struct CoveyLedger.CoveyContent[]",
          "name": "",
          "type": "tuple[]"
        }
      ],
      "stateMutability": "view",
      "type": "function"
    },
    {
      "inputs": [],
      "name": "getAllContent",
      "outputs": [
        {
          "components": [
            {
              "internalType": "address",
              "name": "analyst",
              "type": "address"
            },
            {
              "internalType": "string",
              "name": "content",
              "type": "string"
            },
            {
              "internalType": "uint256",
              "name": "created_at",
              "type": "uint256"
            }
          ],
          "internalType": "struct CoveyLedger.CoveyContent[]",
          "name": "",
          "type": "tuple[]"
        }
      ],
      "stateMutability": "view",
      "type": "function"
    },
    {
      "inputs": [
        {
          "internalType": "address",
          "name": "oldAddress",
          "type": "address"
        },
        {
          "internalType": "address",
          "name": "newAddress",
          "type": "address"
        }
      ],
      "name": "AddressSwitch",
      "outputs": [],
      "stateMutability": "nonpayable",
      "type": "function"
    },
    {
      "inputs": [
        {
          "internalType": "address",
          "name": "analystAddress",
          "type": "address"
        }
      ],
      "name": "restoreLedger",
      "outputs": [],
      "stateMutability": "nonpayable",
      "type": "function"
    },
    {
      "inputs": [
        {
          "internalType": "address",
          "name": "_adr",
          "type": "address"
        }
      ],
      "name": "getBackupContent",
      "outputs": [
        {
          "components": [
            {
              "internalType": "address",
              "name": "analyst",
              "type": "address"
            },
            {
              "internalType": "string",
              "name": "content",
              "type": "string"
            },
            {
              "internalType": "uint256",
              "name": "created_at",
              "type": "uint256"
            }
          ],
          "internalType": "struct CoveyLedger.CoveyContent[]",
          "name": "",
          "type": "tuple[]"
        }
      ],
      "stateMutability": "view",
      "type": "function"
    }
  ],
  "bytecode": "0x608060405234801561001057600080fd5b50611e0f806100206000396000f3fe608060405234801561001057600080fd5b506004361061007d5760003560e01c806380da6cb31161005b57806380da6cb3146100ec5780638129fc1c14610108578063d92d038a14610112578063fd5ec804146101425761007d565b8063497cc8411461008257806349c675031461009e57806354315084146100ce575b600080fd5b61009c60048036038101906100979190611705565b61015e565b005b6100b860048036038101906100b391906117ac565b61035b565b6040516100c5919061199b565b60405180910390f35b6100d66104eb565b6040516100e3919061199b565b60405180910390f35b610106600480360381019061010191906119bd565b61063c565b005b610110610cb9565b005b61012c600480360381019061012791906117ac565b610dd3565b604051610139919061199b565b60405180910390f35b61015c600480360381019061015791906117ac565b610f63565b005b600060405180606001604052803373ffffffffffffffffffffffffffffffffffffffff168152602001838152602001428152509050600160003373ffffffffffffffffffffffffffffffffffffffff1673ffffffffffffffffffffffffffffffffffffffff16815260200190815260200160002081908060018154018082558091505060019003906000526020600020906003020160009091909190915060008201518160000160006101000a81548173ffffffffffffffffffffffffffffffffffffffff021916908373ffffffffffffffffffffffffffffffffffffffff160217905550602082015181600101908051906020019061025f9291906112d8565b50604082015181600201555050600281908060018154018082558091505060019003906000526020600020906003020160009091909190915060008201518160000160006101000a81548173ffffffffffffffffffffffffffffffffffffffff021916908373ffffffffffffffffffffffffffffffffffffffff16021790555060208201518160010190805190602001906102fb9291906112d8565b50604082015181600201555050423373ffffffffffffffffffffffffffffffffffffffff167fc1ee072f438c5824e2a943285a6d24e3375d58914c2b632a57dfa061efce03648460405161034f9190611a47565b60405180910390a35050565b6060600160008373ffffffffffffffffffffffffffffffffffffffff1673ffffffffffffffffffffffffffffffffffffffff168152602001908152602001600020805480602002602001604051908101604052809291908181526020016000905b828210156104e057838290600052602060002090600302016040518060600160405290816000820160009054906101000a900473ffffffffffffffffffffffffffffffffffffffff1673ffffffffffffffffffffffffffffffffffffffff1673ffffffffffffffffffffffffffffffffffffffff16815260200160018201805461044590611a98565b80601f016020809104026020016040519081016040528092919081815260200182805461047190611a98565b80156104be5780601f10610493576101008083540402835291602001916104be565b820191906000526020600020905b8154815290600101906020018083116104a157829003601f168201915b50505050508152602001600282015481525050815260200190600101906103bc565b505050509050919050565b60606002805480602002602001604051908101604052809291908181526020016000905b8282101561063357838290600052602060002090600302016040518060600160405290816000820160009054906101000a900473ffffffffffffffffffffffffffffffffffffffff1673ffffffffffffffffffffffffffffffffffffffff1673ffffffffffffffffffffffffffffffffffffffff16815260200160018201805461059890611a98565b80601f01602080910402602001604051908101604052809291908181526020018280546105c490611a98565b80156106115780601f106105e657610100808354040283529160200191610611565b820191906000526020600020905b8154815290600101906020018083116105f457829003601f168201915b505050505081526020016002820154815250508152602001906001019061050f565b50505050905090565b8173ffffffffffffffffffffffffffffffffffffffff163373ffffffffffffffffffffffffffffffffffffffff161461067457600080fd5b6000600160003373ffffffffffffffffffffffffffffffffffffffff1673ffffffffffffffffffffffffffffffffffffffff16815260200190815260200160002080549050116106f9576040517f08c379a00000000000000000000000000000000000000000000000000000000081526004016106f090611b16565b60405180910390fd5b6000600160003373ffffffffffffffffffffffffffffffffffffffff1673ffffffffffffffffffffffffffffffffffffffff16815260200190815260200160002090506000600160008473ffffffffffffffffffffffffffffffffffffffff1673ffffffffffffffffffffffffffffffffffffffff168152602001908152602001600020805490501115610c0a576107908261117a565b6000600160008473ffffffffffffffffffffffffffffffffffffffff1673ffffffffffffffffffffffffffffffffffffffff168152602001908152602001600020805480602002602001604051908101604052809291908181526020016000905b8282101561091557838290600052602060002090600302016040518060600160405290816000820160009054906101000a900473ffffffffffffffffffffffffffffffffffffffff1673ffffffffffffffffffffffffffffffffffffffff1673ffffffffffffffffffffffffffffffffffffffff16815260200160018201805461087a90611a98565b80601f01602080910402602001604051908101604052809291908181526020018280546108a690611a98565b80156108f35780601f106108c8576101008083540402835291602001916108f3565b820191906000526020600020905b8154815290600101906020018083116108d657829003601f168201915b50505050508152602001600282015481525050815260200190600101906107f1565b505050509050600160008473ffffffffffffffffffffffffffffffffffffffff1673ffffffffffffffffffffffffffffffffffffffff1681526020019081526020016000206000610966919061135e565b60005b8280549050811015610af0578160008151811061098957610988611b36565b5b6020026020010151604001518382815481106109a8576109a7611b36565b5b9060005260206000209060030201600201541015610add57600160008573ffffffffffffffffffffffffffffffffffffffff1673ffffffffffffffffffffffffffffffffffffffff168152602001908152602001600020838281548110610a1257610a11611b36565b5b906000526020600020906003020190806001815401808255809150506001900390600052602060002090600302016000909190919091506000820160009054906101000a900473ffffffffffffffffffffffffffffffffffffffff168160000160006101000a81548173ffffffffffffffffffffffffffffffffffffffff021916908373ffffffffffffffffffffffffffffffffffffffff1602179055506001820181600101908054610ac490611a98565b610acf929190611382565b506002820154816002015550505b8080610ae890611b94565b915050610969565b5060005b8151811015610c0357600160008573ffffffffffffffffffffffffffffffffffffffff1673ffffffffffffffffffffffffffffffffffffffff168152602001908152602001600020828281518110610b4f57610b4e611b36565b5b6020026020010151908060018154018082558091505060019003906000526020600020906003020160009091909190915060008201518160000160006101000a81548173ffffffffffffffffffffffffffffffffffffffff021916908373ffffffffffffffffffffffffffffffffffffffff1602179055506020820151816001019080519060200190610be39291906112d8565b506040820151816002015550508080610bfb90611b94565b915050610af4565b5050610c5a565b80600160008473ffffffffffffffffffffffffffffffffffffffff1673ffffffffffffffffffffffffffffffffffffffff168152602001908152602001600020908054610c5892919061140f565b505b8173ffffffffffffffffffffffffffffffffffffffff168373ffffffffffffffffffffffffffffffffffffffff167fd8664d946c6c91d61ec58f6ab38e3c3ba8201c40c329115f516085f2211dcded60405160405180910390a3505050565b600060019054906101000a900460ff1680610cdf575060008054906101000a900460ff16155b610d1e576040517f08c379a0000000000000000000000000000000000000000000000000000000008152600401610d1590611c4f565b60405180910390fd5b60008060019054906101000a900460ff161590508015610d6e576001600060016101000a81548160ff02191690831515021790555060016000806101000a81548160ff0219169083151502179055505b33600360006101000a81548173ffffffffffffffffffffffffffffffffffffffff021916908373ffffffffffffffffffffffffffffffffffffffff1602179055508015610dd05760008060016101000a81548160ff0219169083151502179055505b50565b6060600460008373ffffffffffffffffffffffffffffffffffffffff1673ffffffffffffffffffffffffffffffffffffffff168152602001908152602001600020805480602002602001604051908101604052809291908181526020016000905b82821015610f5857838290600052602060002090600302016040518060600160405290816000820160009054906101000a900473ffffffffffffffffffffffffffffffffffffffff1673ffffffffffffffffffffffffffffffffffffffff1673ffffffffffffffffffffffffffffffffffffffff168152602001600182018054610ebd90611a98565b80601f0160208091040260200160405190810160405280929190818152602001828054610ee990611a98565b8015610f365780601f10610f0b57610100808354040283529160200191610f36565b820191906000526020600020905b815481529060010190602001808311610f1957829003601f168201915b5050505050815260200160028201548152505081526020019060010190610e34565b505050509050919050565b6000600460008373ffffffffffffffffffffffffffffffffffffffff1673ffffffffffffffffffffffffffffffffffffffff1681526020019081526020016000208054905011610fe8576040517f08c379a0000000000000000000000000000000000000000000000000000000008152600401610fdf90611cbb565b60405180910390fd5b8073ffffffffffffffffffffffffffffffffffffffff163373ffffffffffffffffffffffffffffffffffffffff1614611056576040517f08c379a000000000000000000000000000000000000000000000000000000000815260040161104d90611d4d565b60405180910390fd5b6000600460008373ffffffffffffffffffffffffffffffffffffffff1673ffffffffffffffffffffffffffffffffffffffff168152602001908152602001600020905080600160008473ffffffffffffffffffffffffffffffffffffffff1673ffffffffffffffffffffffffffffffffffffffff1681526020019081526020016000209080546110e792919061140f565b50600460008373ffffffffffffffffffffffffffffffffffffffff1673ffffffffffffffffffffffffffffffffffffffff1681526020019081526020016000206000611133919061135e565b8173ffffffffffffffffffffffffffffffffffffffff167f6558213e01f750da8ca9580890a2ea42104fa89ba8a12931c4d297f3421e94ae60405160405180910390a25050565b6000600160008373ffffffffffffffffffffffffffffffffffffffff1673ffffffffffffffffffffffffffffffffffffffff16815260200190815260200160002080549050116111ff576040517f08c379a00000000000000000000000000000000000000000000000000000000081526004016111f690611db9565b60405180910390fd5b6000600160008373ffffffffffffffffffffffffffffffffffffffff1673ffffffffffffffffffffffffffffffffffffffff168152602001908152602001600020905080600460008473ffffffffffffffffffffffffffffffffffffffff1673ffffffffffffffffffffffffffffffffffffffff16815260200190815260200160002090805461129092919061140f565b508173ffffffffffffffffffffffffffffffffffffffff167f0228a34d974cfe0f3ed5fe6b9aa1656cc3bc27123eaf6e594a03df28185bf59760405160405180910390a25050565b8280546112e490611a98565b90600052602060002090601f016020900481019282611306576000855561134d565b82601f1061131f57805160ff191683800117855561134d565b8280016001018555821561134d579182015b8281111561134c578251825591602001919060010190611331565b5b50905061135a91906114f8565b5090565b508054600082556003029060005260206000209081019061137f9190611515565b50565b82805461138e90611a98565b90600052602060002090601f0160209004810192826113b057600085556113fe565b82601f106113c157805485556113fe565b828001600101855582156113fe57600052602060002091601f016020900482015b828111156113fd5782548255916001019190600101906113e2565b5b50905061140b91906114f8565b5090565b8280548282559060005260206000209060030281019282156114e75760005260206000209160030282015b828111156114e65782826000820160009054906101000a900473ffffffffffffffffffffffffffffffffffffffff168160000160006101000a81548173ffffffffffffffffffffffffffffffffffffffff021916908373ffffffffffffffffffffffffffffffffffffffff16021790555060018201816001019080546114bf90611a98565b6114ca929190611382565b506002820154816002015550509160030191906003019061143a565b5b5090506114f49190611515565b5090565b5b808211156115115760008160009055506001016114f9565b5090565b5b8082111561156757600080820160006101000a81549073ffffffffffffffffffffffffffffffffffffffff0219169055600182016000611556919061156b565b600282016000905550600301611516565b5090565b50805461157790611a98565b6000825580601f1061158957506115a8565b601f0160209004906000526020600020908101906115a791906114f8565b5b50565b6000604051905090565b600080fd5b600080fd5b600080fd5b600080fd5b6000601f19601f8301169050919050565b7f4e487b7100000000000000000000000000000000000000000000000000000000600052604160045260246000fd5b611612826115c9565b810181811067ffffffffffffffff82111715611631576116306115da565b5b80604052505050565b60006116446115ab565b90506116508282611609565b919050565b600067ffffffffffffffff8211156116705761166f6115da565b5b611679826115c9565b9050602081019050919050565b82818337600083830152505050565b60006116a86116a384611655565b61163a565b9050828152602081018484840111156116c4576116c36115c4565b5b6116cf848285611686565b509392505050565b600082601f8301126116ec576116eb6115bf565b5b81356116fc848260208601611695565b91505092915050565b60006020828403121561171b5761171a6115b5565b5b600082013567ffffffffffffffff811115611739576117386115ba565b5b611745848285016116d7565b91505092915050565b600073ffffffffffffffffffffffffffffffffffffffff82169050919050565b60006117798261174e565b9050919050565b6117898161176e565b811461179457600080fd5b50565b6000813590506117a681611780565b92915050565b6000602082840312156117c2576117c16115b5565b5b60006117d084828501611797565b91505092915050565b600081519050919050565b600082825260208201905092915050565b6000819050602082019050919050565b61180e8161176e565b82525050565b600081519050919050565b600082825260208201905092915050565b60005b8381101561184e578082015181840152602081019050611833565b8381111561185d576000848401525b50505050565b600061186e82611814565b611878818561181f565b9350611888818560208601611830565b611891816115c9565b840191505092915050565b6000819050919050565b6118af8161189c565b82525050565b60006060830160008301516118cd6000860182611805565b50602083015184820360208601526118e58282611863565b91505060408301516118fa60408601826118a6565b508091505092915050565b600061191183836118b5565b905092915050565b6000602082019050919050565b6000611931826117d9565b61193b81856117e4565b93508360208202850161194d856117f5565b8060005b85811015611989578484038952815161196a8582611905565b945061197583611919565b925060208a01995050600181019050611951565b50829750879550505050505092915050565b600060208201905081810360008301526119b58184611926565b905092915050565b600080604083850312156119d4576119d36115b5565b5b60006119e285828601611797565b92505060206119f385828601611797565b9150509250929050565b600082825260208201905092915050565b6000611a1982611814565b611a2381856119fd565b9350611a33818560208601611830565b611a3c816115c9565b840191505092915050565b60006020820190508181036000830152611a618184611a0e565b905092915050565b7f4e487b7100000000000000000000000000000000000000000000000000000000600052602260045260246000fd5b60006002820490506001821680611ab057607f821691505b60208210811415611ac457611ac3611a69565b5b50919050565b7f43616e6e6f7420636f707920616e20656d707479206c65646765720000000000600082015250565b6000611b00601b836119fd565b9150611b0b82611aca565b602082019050919050565b60006020820190508181036000830152611b2f81611af3565b9050919050565b7f4e487b7100000000000000000000000000000000000000000000000000000000600052603260045260246000fd5b7f4e487b7100000000000000000000000000000000000000000000000000000000600052601160045260246000fd5b6000611b9f8261189c565b91507fffffffffffffffffffffffffffffffffffffffffffffffffffffffffffffffff821415611bd257611bd1611b65565b5b600182019050919050565b7f496e697469616c697a61626c653a20636f6e747261637420697320616c72656160008201527f647920696e697469616c697a6564000000000000000000000000000000000000602082015250565b6000611c39602e836119fd565b9150611c4482611bdd565b604082019050919050565b60006020820190508181036000830152611c6881611c2c565b9050919050565b7f4e6f206261636b757020746f20726573746f7265000000000000000000000000600082015250565b6000611ca56014836119fd565b9150611cb082611c6f565b602082019050919050565b60006020820190508181036000830152611cd481611c98565b9050919050565b7f43616e6e6f7420726573746f72652061646472657373206f746865722074686160008201527f6e20796f7572206f776e00000000000000000000000000000000000000000000602082015250565b6000611d37602a836119fd565b9150611d4282611cdb565b604082019050919050565b60006020820190508181036000830152611d6681611d2a565b9050919050565b7f4e6f7468696e6720746f206261636b7570000000000000000000000000000000600082015250565b6000611da36011836119fd565b9150611dae82611d6d565b602082019050919050565b60006020820190508181036000830152611dd281611d96565b905091905056fea26469706673582212208211c0ba687b5aa327230966367eaada5c80eb2ad349529f63ac93e0a9df897e64736f6c634300080a0033",
  "immutableReferences": {},
  "source": "// SPDX-License-Identifier: MIT\r\npragma solidity >=0.4.22 <0.9.0;\r\n\r\nimport '@openzeppelin/contracts-upgradeable/proxy/utils/Initializable.sol';\r\n\r\ncontract CoveyLedger is Initializable {\r\n    struct CoveyContent {\r\n        address analyst;\r\n        string content;\r\n        uint256 created_at;\r\n    }\r\n\r\n    mapping(address => CoveyContent[]) analystContent;\r\n    CoveyContent[] allContent;\r\n    address owner;\r\n\r\n    mapping(address => CoveyContent[]) backupContent;\r\n\r\n    function initialize() public initializer {\r\n        owner = msg.sender;\r\n    }\r\n\r\n    event ContentCreated(\r\n        address indexed analyst,\r\n        string content,\r\n        uint256 indexed created_at\r\n    );\r\n\r\n    event AddressSwapped(\r\n        address indexed oldAddress,\r\n        address indexed newAddress\r\n    );\r\n\r\n    event LedgerBackup(address indexed analystAddress);\r\n    event LedgerRestored(address indexed analystAddress);\r\n\r\n    modifier onlyOwner {\r\n        require(msg.sender == owner);\r\n        _;\r\n    }\r\n\r\n    function createContent(string memory content) public {\r\n        CoveyContent memory c = CoveyContent({\r\n            analyst: msg.sender,\r\n            content: content,\r\n            created_at: block.timestamp\r\n        });\r\n        analystContent[msg.sender].push(c);\r\n        allContent.push(c);\r\n\r\n        emit ContentCreated(msg.sender, content, block.timestamp);\r\n    }\r\n\r\n    function getAnalystContent(address _adr)\r\n        public\r\n        view\r\n        returns (CoveyContent[] memory)\r\n    {\r\n        return analystContent[_adr];\r\n    }\r\n\r\n    function getAllContent() public view returns (CoveyContent[] memory) {\r\n        return allContent;\r\n    }\r\n\r\n    function AddressSwitch(address oldAddress, address newAddress) public {\r\n        require(msg.sender == oldAddress);\r\n        require(\r\n            analystContent[msg.sender].length > 0,\r\n            'Cannot copy an empty ledger'\r\n        );\r\n\r\n        CoveyContent[] storage copyContent = analystContent[msg.sender];\r\n\r\n        if (analystContent[newAddress].length > 0) {\r\n            backupLedger(newAddress);\r\n            CoveyContent[] memory existingLedger = analystContent[newAddress];\r\n            delete analystContent[newAddress];\r\n            for (uint256 i = 0; i < copyContent.length; i++) {\r\n                if (copyContent[i].created_at < existingLedger[0].created_at) {\r\n                    analystContent[newAddress].push(copyContent[i]);\r\n                }\r\n            }\r\n\r\n            for (uint256 j = 0; j < existingLedger.length; j++) {\r\n                analystContent[newAddress].push(existingLedger[j]);\r\n            }\r\n        } else {\r\n            analystContent[newAddress] = copyContent;\r\n        }\r\n\r\n        emit AddressSwapped(oldAddress, newAddress);\r\n    }\r\n\r\n    function backupLedger(address analystAddress) private {\r\n        require(analystContent[analystAddress].length > 0, 'Nothing to backup');\r\n\r\n        CoveyContent[] storage backup = analystContent[analystAddress];\r\n\r\n        backupContent[analystAddress] = backup;\r\n        emit LedgerBackup(analystAddress);\r\n    }\r\n\r\n    function restoreLedger(address analystAddress) public {\r\n        require(\r\n            backupContent[analystAddress].length > 0,\r\n            'No backup to restore'\r\n        );\r\n\r\n        require(\r\n            msg.sender == analystAddress,\r\n            'Cannot restore address other than your own'\r\n        );\r\n        CoveyContent[] storage backup = backupContent[analystAddress];\r\n        analystContent[analystAddress] = backup;\r\n\r\n        delete backupContent[analystAddress];\r\n\r\n        emit LedgerRestored(analystAddress);\r\n    }\r\n\r\n    function getBackupContent(address _adr)\r\n        public\r\n        view\r\n        returns (CoveyContent[] memory)\r\n    {\r\n        return backupContent[_adr];\r\n    }\r\n}\r\n",
  "sourcePath": "C:\\Users\\jcara\\Documents\\repos\\smart-contract-ledger\\contracts\\CoveyLedger.sol",
  "compiler": {
    "name": "solc",
    "version": "0.8.10+commit.fc410830.Emscripten.clang"
  },
  "schemaVersion": "3.4.4",
  "updatedAt": "2022-06-01T16:26:40.302Z",
  "devdoc": {
    "kind": "dev",
    "methods": {},
    "version": 1
  },
  "userdoc": {
    "kind": "user",
    "methods": {},
    "version": 1
  }
}